:020000040000fa
:080000000002040000000000f2
:020000040000fa
:100008009a0200009a0200009a0200009a02000078
:100018009a0200009a0200009a0200009a02000068
:100028009a0200009a0200009a0200009a02000058
:100038009a0200009a0200009a0200009a02000048
:020000040000fa
:020000040000fa
:100400002f9620000eff20000e0188000000000043
:10041000000020000000e000020032000001200087
:10042000200288000c000700208a22000100200022
:1004300011000700000020000000e0000200320070
:100440000000020000000000fa2802000000000086
:100450000040da000000fe004440a900400f2000e8
:100460000000e0000300320000002000a00188002e
:100470004440a80000000600910188008000780038
:100480000000eb0015003700e280400032a0b4000d
:100490009101ba00e280400032a0b4009102ba009b
:1004a000e280400032a0b4000002eb00472bde00e7
:1004b000f507b200602ce10004003a000059eb009f
:1004c0008301e900fdff3e00040037006128e100e0
:1004d000010032000082eb00040007001101ba00a5
:1004e0000200e000e8ff3a00000006003159ba00bf
:1004f0008301e9000c0032002159ba008301e900b0
:10050000080032000400e00003003a00e2804000ee
:1005100032a0b400f5ff370011d9ba008301e90019
:10052000faff3a008100e800e180400032a0b40008
:10053000000006000040da000000fe0003f0a20008
:10054000889fbe008a9fbe008c1f78009101070023
:10055000980133006450e1004f0032006420e10054
:100560005200320003826c0007003b000905d000f6
:100570000306d000820f54000c065d000200390013
:100580000200320089017800030678008582550058
:1005900004003d000003fd008103fd008502ea0028
:1005a0008b854200840f720002003b006000100047
:1005b000e08018006011b8000005eb007a28e10027
:1005c0000a00390006007800c75ddd00f707b200b9
:1005d000878075002d003700828171000a01780044
:1005e000610560008180d1000080d3008502e900b0
:1005f000f9ff3b00060440008784480002003b00ee
:1006000060041400e0841c000988a3000700320085
:100610008a81710082817100610164008904d100c6
:100620000884d3008b05e800170037000978a30081
:1006300013003a000b00e000130034008b05e900c2
:100640000804440089844c000a4474000978a3001b
:100650000d003a000b00e000070034008b05e900b4
:100660000804440089844c0001003a000b0020007b
:100670000978a300f7ff32000001eb000200370009
:10068000828171000a017800070107000cf0a700c1
:1006900001f0a000500137006420e10002003a00a0
:1006a000838f6c00500133000801be000200be00c1
:1006b00049013700889fbe008a9fbe008c1f7800ca
:1006c000340107001002200002003b009046880021
:1006d000380137008a0062006408e10002003a0035
:1006e00090468800400137006108e100fcff3200bd
:1006f0000800be00030478007000070001f0a100ac
:100700000900070008f0a600040037000001be0041
:1007100091042400b0fd200088ff070009f0a70025
:1007200001f0a2002c013700889fbe008a9fbe0006
:100730008c9fbe000004be00010107000800be003f
:10074000890678006420e1000800390004003200c6
:100750000160a0001202200092468800530037007a
:1007600091fc2300b0fd20004e0037000006eb0096
:1007700009f0a10003f82300020020000800be00d9
:100780009f0007000600340001f82300000020004d
:100790000801be00490007000004be002c00200034
:1007a0000800be0093e82300320a230094000700eb
:1007b000120034000801be00d1fd2300703d2b0063
:1007c0005fff07000005be00b3f32300f27a2600a6
:1007d0000800be001601070003f8230002002000f5
:1007e00056ff07000801be0055ff07000a01be00c2
:1007f000320007000004be000c06e8000800be003e
:1008000001f0a10002002000039823007c000700f3
:100810000800be00160035000801be0004010700f4
:100820000005be0032cd2c0043fb230044ff07002f
:10083000809fbe001269280003d52b000a00be006d
:10084000fb000700620f210013ef2b003cff0700a5
:100850000a01be00f60007004f01be0017000700a6
:100860000801be00f20007000801be0034ff0700c7
:100870000c00e0000b0032000c10a70001f0a200f9
:10088000b2fd200093fc23006260e100040032000e
:1008900022a9200063f023000c10a70063f82300b6
:1008a00027ff07000df0a70001f0a2004f06be00d1
:1008b0004f05be004f04be0000000600889fbe002a
:1008c0008a9fbe008c1f7800b2000700b900330079
:1008d00003866c006450e1002e0032006420e100c9
:1008e000330032006150e1002f0032006120e1004e
:1008f0003100320085855500eb07b000090020006b
:1009000008042000050037000804440089844c00d6
:100910000a0031000603430087834b0000015300a7
:1009200081815b00f8ff33000203be000800a000d5
:100930000804440089844c00f6ff3900c639dd0004
:100940008301730001003200130020008904d100ec
:100950000884d3000998a300050032000800a7000e
:100960000300a0008904d1000884d3008b05e800af
:100970008904d1000884d3000001eb000281d20079
:100980004900070001f0a1000cf0a70001f0a00051
:10099000910037006420e100930032000801be009e
:1009a0000200be00f7ff37006120e1008e00320038
:1009b0006000b800f3ff37000000200001f82700b6
:1009c000f0ff3700839f68000100e00002003d0057
:1009d00060001000e08018000300e00002003d000d
:1009e00060011100e0811900c50007004f00e00020
:1009f00002003b0060001000e080180000000600cc
:100a000014002000d1003700f4ff2f00cf00370082
:100a10000001be004a0007000470a70003f0a10017
:100a20006509b100160032000d0035006828e100ac
:100a300006003500f0ff2f00f1ff27000300e00063
:100a400013003b00010028000000050000004000ea
:100a5000818048008502e900fcff3a000800370069
:100a6000f88f420002003c008000eb00000005000f
:100a70008100d1000080d3008502e800fcff3a002d
:100a80000300e00002003b0060001000e08018005e
:100a9000000006004f89de0082017800c6003700a2
:100aa00004002000a900370081002000618055006b
:100ab0000b003d000b00200061fe2f000100e10053
:100ac0001d00340082817100610164008904d1003d
:100ad0000884d3000000e800faff3a00710020000b
:100ae0006100640003007000020060000900320031
:100af00061044400e0844c000988a5000500320030
:100b00008b05e8006808e10002003a008904d10082
:100b10000884d300f20f20000258e10005003d00d8
:100b2000c75ddd00f907b200898075000800780014
:100b3000000006000bf827008b007800000005007d
:100b4000c70ade00f107b200f50fb200080032005c
:100b5000e1cf4200020032000170a0002400050035
:100b6000810f7000010032000408050044000500f8
:100b7000810f700002003a00140005008502e900b0
:100b80000000400081c04800fcff3b000170a00055
:100b9000240005000004be00e9ff07000003be00ba
:100ba0000405be000200be00e5ff0700844f75008b
:100bb000000006000200be006450e100050036009f
:100bc0006420e100020036000968a30001003a0039
:100bd0000800be000160a0004f0678004f05be006f
:100be0004f04be0000000600f0ff2f00f1ff2700b9
:100bf000f9ff3700811f78000100e00002003d008e
:100c000060001000e08018000300e00002003d00da
:100c100060011100e0811900490007004f00e00069
:100c200002003b0060001000e08018000000060099
:100c3000889fbe008a9fbe008c1f7800d5ff0700ea
:100c4000dcff330003866c006450e10024003200b6
:100c50006420e100270032006150e10022003200f0
:100c60006120e100210032008b854200eb07b100da
:100c70000134b800003ab8000804420089844a00f0
:100c8000013ab8000030b8008880400009014a00ed
:100c90000400330000004000818048000201490048
:100ca0008b05e900c909dd008301700001003200f5
:100cb00013002000c814de004814dd004709de00e0
:100cc0001200b200c808de000884700076ff07003a
:100cd00001f0a1000cf0a70001f0a000beff37005a
:100ce0006120e100c0ff32000801be000200be002a
:100cf000f7ff37006150e100fcff3a00baff370010
:100d00006022b800060220000000d0008180d200de
:100d10000482d2008582d2000000a00002025200ac
:100d200083825a00030031000202420083824a009b
:100d30000000a1000603e900f3ff3a0000000600ee
:100d4000efff07000400be0000000600889fbe0001
:100d50008a9fbe00841f78008eff07004f00780036
:100d600011003300f0ff2f00838f6c0006003b0062
:100d7000040565000a00a7000800370009f0a60076
:100d80001000200008003700820f5400838f5c00a1
:100d9000030039001000200001003e000000200088
:100da00009f0a7000000ea004f05be004f04be0096
:100db0000000e00000000600881f780003047800af
:100dc0000300e00007003d0060001000e080180014
:100dd00060011900e081190002003b0001f02d00c4
:100de000030037000400070008f0a70001f0a0008e
:100df0004f04780000000600889fbe008a9fbe0056
:100e0000008270000402710004827100260032002a
:100e10000004be000200be006011b8006b09200093
:100e2000950220000182cf000a0039000541b1007f
:100e30000082cf00070039000541b1000982cf00d0
:100e4000040039000541b1000882cf0001003900db
:100e50000541b10005425200120032000a003b0079
:100e600082817100610164008100d1000080d300a3
:100e70008984d3000884d3008b05e8000442e8008d
:100e8000f7ff3a00070037000804440089844c004b
:100e900000004800818048008b05e9000442e90019
:100ea000f9ff3a0000ff07004f05be004f04be00e7
:100eb00000000600889fbe00b04680000000e000f1
:100ec0000100320000000100c04680000000e00088
:100ed0000100320000000100408d20001004e000fd
:100ee00022003a00f04a8000014b80008800200078
:100ef000d26026009301200046000700f2352f0043
:100f0000e3c6230000004100818049000804e90095
:100f1000f7ff3a00a88d20000908200088844400cb
:100f2000d2602600930120003a000700f2352f001e
:100f3000e3c62300000041008180490000acbe00f0
:100f4000890f5400f6ff3a00f04a8800014b8800f0
:100f5000d04a8000e14a8000d0468800e1468800ff
:100f600011c0b300408d200001487800d2602600f7
:100f700093012000f04a8000014b8000250007000b
:100f8000f2352f00e3c623000002410081824900b0
:100f9000f44a8800054b8800a08d200010007800de
:100fa0007f0160004211dd00e08d20000201400061
:100fb0001200be00d0468800e14688000489be00c9
:100fc0000100780000f0a1004f04be000000060000
:100fd000889fbe0000047800b04680000000e0005a
:100fe0000100320000000100408d20000048eb00ad
:100ff000c04680000000e000010032000000010057
:101000008004eb00f84a8800094b88004f04be00ba
:1010100000000600020ab900001bb9000200b80077
:0c10200081004200810043000000060037
:020000040000fa
:10102c000b0000000c0000000f000000560e00002a
:10103c002d3e000036ec0000913c0000000000004a
:10104c000100000005000000ff010000140000007a
:10105c00204e00000a0000000a00000003000000ff
:10106c0001000000b1dc0000523c00000a0000004e
:10107c0046b60000f33e0000000000000100000036
:10108c000200000003000000040000000500000046
:10109c00060000006f120000033c00002822000034
:1010ac00742200003a220000696e0000697400008e
:1010bc00696100006c6900007a6500002200000084
:1010cc002c220000622200003a00000029000000df
:1010dc003a000000202000002000000057650000ae
:1010ec00656b000044610000793a000020000000ac
:1010fc0020200000002f0000002000000d0a00003e
:10110c00003000003132000033340000353600006e
:10111c0037380000390000002d0000002e000000c0
:10112c0030000000415400002b4300004d470000ec
:10113c00463d0000310d00000a0000004154000043
:10114c002b4300004d470000533d000022000000df
:10115c00220d00000a0000001a00000028220000e6
:10116c00742200003a220000642200002c220000ad
:10117c00642200003a280000226c0000223a000091
:10118c00002c000022700000223a0000002c00000d
:10119c0022640000223a00003c0000002c000000f9
:1011ac003e0000002c220000762200003a3c000099
:1011bc00003e000029290000002000000d20000046
:1011cc000a0000005768000061740000204800000d
:1011dc006174000068200000476f0000642000006c
:1011ec00577200006f75000067680000743f0000c4
:1011fc00204e0000756d000062650000722000003a
:08120c00313100000000000078
:020000040000fa
:101214000400fa00000f7800110798001e007800ff
:10122400e20f50000b003a001e00900000407800ce
:10123400614060000080fb006100600002168000d5
:10124400e1ff2f008100610001007000001688009a
:10125400380137001e007800e30f50000c003a00fc
:101264001e00900000407800614060000080fb0098
:10127400610060000000400002168000d1ff2f00d2
:101284008100610001007000001688002901370008
:101294001e007800e40f50000b003a001e0090007e
:1012a40000407800614060000080fb006100600045
:1012b40042168000e1ff2f008100610001007000f0
:1012c400401688001b0137001e007800e50f50000f
:1012d4000c003a001e00900000407800614060005d
:1012e4000080fb00610060000000400042168000a6
:1012f400d1ff2f00810061000100700040168800ba
:101304000c0137001e007800e60f50000c003a0074
:101314001e00900000407800614060000080fb00e7
:10132400610060004200dd0042168000b1ff2f0022
:10133400810061000100700040168800fd00370044
:101344001e007800e70f50000c003a001e009000c9
:1013540000407800614060000080fb006100600094
:101364004300dd004216800071ff2f008100610000
:101374000100700040168800ee0037001e0078005f
:10138400e90f50000c003a001e0090000040780065
:10139400614060000080fb00610060004200dd00ed
:1013a40002168000b1ff2f0081006100010070006f
:1013b40000168800df0037001e007800ea0f500096
:1013c4000c003a001e00900000407800614060006c
:1013d4000080fb00610060004300dd000216800015
:1013e40071ff2f0081006100010070000016880069
:1013f400d00037001e007800eb0f50000c003a00bc
:101404001e00900000407800614060000080fb00f6
:10141400610060004400dd0042168000f1fe2f00f0
:10142400810061000100700040168800c10037008f
:101434001e007800ec0f50000c003a001e009000d3
:1014440000407800614060000080fb0061006000a3
:101454004400dd0002168000f1fe2f0081006100cf
:101464000100700000168800b20037001e007800ea
:10147400ee0f50000c003a001e009000004078006f
:10148400614060000080fb00610060004500dd00f9
:1014940042168000f1fd2f00810061000100700000
:1014a40040168800a30037001e007800ef0f50009c
:1014b4000c003a001e00900000407800614060007b
:1014c4000080fb00610060004600dd0042168000e1
:1014d400f1fb2f00810061000100700040168800bc
:1014e400940037001e007800f00f50000c003a0002
:1014f4001e00900000407800614060000080fb0006
:10150400610060004700dd0042168000f1f72f0003
:1015140081006100010070004016880085003700da
:101524001e007800f10f50000c003a001e009000dd
:1015340000407800614060000080fb0061006000b2
:101544004800dd0042168000f1ef2f0081006100a9
:101554000100700040168800760037001e007800f5
:10156400f20f50000c003a001e009000004078007a
:10157400614060000080fb00610060004900dd0004
:1015840042168000f1df2f0081006100010070002d
:1015940040168800670037001e007800f30f5000e3
:1015a4000c003a001e00900000407800614060008a
:1015b4000080fb00610060004700dd00021680002f
:1015c400f1f72f008100610001007000001688000f
:1015d400580037001e007800f50f50000c003a0048
:1015e4001e00900000407800614060000080fb0015
:1015f400610060004a00dd0042168000f1bf2f0048
:101604008100610001007000401688004900370025
:101614001e007800f60f50000c003a001e009000e7
:1016240000407800614060000080fb0061006000c1
:101634004b00dd0042168000f17f2f008100610025
:1016440001007000401688003a0037001e00780040
:10165400f70f50000c003a001e0090000040780084
:10166400614060000080fb00610060004c00dd0010
:1016740042168000f1ff2e0081006100010070001d
:10168400401688002b0037001e007800f80f500029
:101694000c003a001e009000004078006140600099
:1016a4000080fb00610060004d00dd0042168000f8
:1016b400f1ff2d00810061000100700040168800d8
:1016c4001c0037001e007800f90f50000c003a008f
:1016d4001e00900000407800614060000080fb0024
:1016e400610060004e00dd0042168000f1ff2b0017
:1016f4008100610001007000401688000d00370071
:101704001e007800fa0f50000a003a001e009000f4
:1017140000407800614060000080fb004f00dd0065
:1017240042168000f1ff2700810061000100700073
:10173400401688000080fa00000006000400fa0049
:10174400000f7800110798001e007800e10f500088
:101754000c003a001e0090000040780061406000d8
:101764000080fb00610060004500dd00121680006f
:10177400f1fd2f0081006100010070001016880047
:10178400460137001e007800e20f50000b003a00bb
:101794001e00900000407800614060000080fb0063
:1017a4006100600012168000e1ff2f0081006100db
:1017b4000100700010168800380137001e00780000
:1017c400e30f50000c003a001e0090000040780027
:1017d400614060000080fb00610060000000400088
:1017e40012168000d1ff2f008100610001007000fb
:1017f40010168800290137001e007800e40f5000fd
:101804000b003a001e009000004078006140600028
:101814000080fb006100600052168000e1ff2f0091
:101824008100610001007000501688001b01370020
:101834001e007800e50f50000c003a001e009000d6
:1018440000407800614060000080fb00610060009f
:101854000000400052168000d1ff2f00810061007b
:1018640001007000501688000c0137001e0078003b
:10187400e60f50000c003a001e0090000040780073
:10188400614060000080fb00610060004200dd00f8
:1018940052168000b1ff2f0081006100010070002a
:1018a40050168800fd0037001e007800e70f500036
:1018b4000c003a001e009000004078006140600077
:1018c4000080fb00610060004300dd0052168000d0
:1018d40071ff2f0081006100010070005016880024
:1018e400ee0037001e007800e90f50000c003a00ab
:1018f4001e00900000407800614060000080fb0002
:10190400610060004200dd0012168000b1ff2f006c
:10191400810061000100700010168800df003700ac
:101924001e007800ea0f50000c003a001e009000e0
:1019340000407800614060000080fb0061006000ae
:101944004300dd001216800071ff2f00810061004a
:101954000100700010168800d00037001e007800c7
:10196400eb0f50000c003a001e009000004078007d
:10197400614060000080fb00610060004400dd0005
:1019840052168000f1fe2f008100610001007000fa
:1019940050168800c10037001e007800ec0f50007c
:1019a4000c003a001e009000004078006140600086
:1019b4000080fb00610060004400dd00121680001e
:1019c400f1fe2f00810061000100700010168800f4
:1019d400b20037001e007800ee0f50000c003a00f1
:1019e4001e00900000407800614060000080fb0011
:1019f400610060004500dd0052168000f1fd2f00fb
:101a0400810061000100700050168800a3003700b7
:101a14001e007800ef0f50000c003a001e009000ea
:101a240000407800614060000080fb0061006000bd
:101a34004600dd0052168000f1fb2f00810061009a
:101a44000100700050168800940037001e007800d2
:101a5400f00f50000c003a001e0090000040780087
:101a6400614060000080fb00610060004700dd0011
:101a740052168000f1f72f00810061000100700010
:101a840050168800850037001e007800f10f5000c2
:101a94000c003a001e009000004078006140600095
:101aa4000080fb00610060004800dd0052168000e9
:101ab400f1ef2f00810061000100700050168800d2
:101ac400760037001e007800f20f50000c003a0038
:101ad4001e00900000407800614060000080fb0020
:101ae400610060004900dd0052168000f1df2f0024
:101af4008100610001007000501688006700370003
:101b04001e007800f30f50000c003a001e009000f5
:101b140000407800614060000080fb0061006000cc
:101b24004700dd0012168000f1f72f0081006100ec
:101b34000100700010168800580037001e0078005d
:101b4400f50f50000c003a001e0090000040780091
:101b5400614060000080fb00610060004a00dd001d
:101b640052168000f1bf2f00810061000100700057
:101b740050168800490037001e007800f60f500008
:101b84000c003a001e0090000040780061406000a4
:101b94000080fb00610060004b00dd0052168000f5
:101ba400f17f2f0081006100010070005016880051
:101bb4003a0037001e007800f70f50000c003a007e
:101bc4001e00900000407800614060000080fb002f
:101bd400610060004c00dd0052168000f1ff2e0011
:101be4008100610001007000501688002b0037004e
:101bf4001e007800f80f50000c003a001e00900000
:101c040000407800614060000080fb0061006000db
:101c14004d00dd0052168000f1ff2d0081006100af
:101c240001007000501688001c0037001e00780068
:101c3400f90f50000c003a001e009000004078009c
:101c4400614060000080fb00610060004e00dd0028
:101c540052168000f1ff2b0081006100010070002a
:101c6400501688000d0037001e007800fa0f50004f
:101c74000a003a001e0090000040780061406000b5
:101c84000080fb004f00dd0052168000f1ff2700aa
:101c94008100610001007000501688000080fa0085
:101ca400000006000400fa00000f780011079800f5
:101cb4001e007800e40f50000b003a001e00900054
:101cc40000407800614060000080fb00610060001b
:101cd40012278000e1ff2f008100610001007000e5
:101ce40010278800760037001e007800e50f5000aa
:101cf4000c003a001e009000004078006140600033
:101d04000080fb006100600000004000122780009a
:101d1400d1ff2f00810061000100700010278800ae
:101d2400670037001e007800e60f50000c003a00f0
:101d34001e00900000407800614060000080fb00bd
:101d4400610060004200dd0012278000b1ff2f0017
:101d540081006100010070001027880058003700de
:101d64001e007800e70f50000c003a001e0090009f
:101d740000407800614060000080fb00610060006a
:101d84004300dd001227800071ff2f0081006100f5
:101d94000100700010278800490037001e007800f9
:101da400eb0f50000c003a001e0090000040780039
:101db400614060000080fb00610060004400dd00c1
:101dc40012278000f1fe2f008100610001007000e5
:101dd400102788003a0037001e007800f70f5000e3
:101de4000c003a001e009000004078006140600042
:101df4000080fb00610060004c00dd0012278000c1
:101e0400f1ff2e008100610001007000102788009e
:101e14002b0037001e007800f80f50000c003a0029
:101e24001e00900000407800614060000080fb00cc
:101e3400610060004d00dd0012278000f1ff2d00dd
:101e44008100610001007000102788001c00370029
:101e54001e007800f90f50000c003a001e0090009c
:101e640000407800614060000080fb006100600079
:101e74004e00dd0012278000f1ff2b00810061007d
:101e840001007000102788000d0037001e00780044
:101e9400fa0f50000a003a001e009000004078003b
:101ea400614060000080fb004f00dd0012278000cd
:101eb400f1ff2700810061000100700010278800f5
:101ec4000080fa00000006000200fa00000f78000b
:101ed4001e007800e40f500006003a00411a80000a
:101ee40000fe2f00008060000010a000401a88004f
:101ef400470037001e007800e50f500006003a0046
:101f0400411a800000fe2f00008060003000b30002
:101f1400401a88003e0037001e007800e60f50008b
:101f240006003a00411a800000fe2f000080600085
:101f34000020a000401a8800350037001e007800f9
:101f4400e70f500006003a00411a800000fe2f00ff
:101f5400008060005000b300401a88002c00370055
:101f64001e007800eb0f500006003a00411a800072
:101f740000fe2f0000806000f000b300401a8800cb
:101f8400230037001e007800f70f500006003a00c7
:101f9400411a800000fe2f0000806000c000b300e2
:101fa400401a88001a0037001e007800f80f50000d
:101fb40006003a00411a800000fe2f0000806000f5
:101fc400b000b300401a8800110037001e007800ea
:101fd400f90f500006003a00411a800000fe2f005d
:101fe40000806000a000b300401a88000800370099
:101ff4001e007800fa0f500005003a00411a8000d4
:1020040000fe2f00008060009000b300401a88009a
:102014000080fa00000006000400fa00100798008f
:102024001e009000e10f500006003a0010168000d8
:102034004500de00614060000080fb00000f780076
:10204400c50037001e009000e20f500006003a0061
:102054001016800000407800614060000080fb00a2
:10206400000f7800bc0037001e009000e30f500002
:1020740006003a00101680000000d10061406000a4
:102084000080fb00000f7800b30037001e009000b2
:10209400e40f500006003a0050168000004078001b
:1020a400614060000080fb00000f7800aa00370048
:1020b4001e009000e50f500006003a005016800004
:1020c4000000d100614060000080fb00000f780038
:1020d400a10037001e009000e60f500006003a00f1
:1020e400501680004200de00614060000080fb006a
:1020f400000f7800980037001e009000e70f500092
:1021040006003a00501680004300de006140600083
:102114000080fb00000f78008f0037001e00900045
:10212400e90f500006003a00101680004200de005d
:10213400614060000080fb00000f780086003700db
:102144001e009000ea0f500006003a0010168000ae
:102154004300de00614060000080fb00000f780057
:102164007d0037001e009000eb0f500006003a007f
:10217400501680004400de00614060000080fb00d7
:10218400000f7800740037001e009000ec0f500020
:1021940006003a00101680004400de006140600032
:1021a4000080fb00000f78006b0037001e009000d9
:1021b400ee0f500006003a00501680004500de0085
:1021c400614060000080fb00000f7800620037006f
:1021d4001e009000ef0f500006003a0050168000d9
:1021e4004600de00614060000080fb00000f7800c4
:1021f400590037001e009000f00f500006003a000e
:10220400501680004700de00614060000080fb0043
:10221400000f7800500037001e009000f10f5000ae
:1022240006003a00501680004800de00614060005d
:102234000080fb00000f7800470037001e0090006c
:10224400f20f500006003a00501680004900de00ec
:10225400614060000080fb00000f78003e00370002
:102264001e009000f30f500006003a001016800084
:102274004700de00614060000080fb00000f780032
:10228400350037001e009000f50f500006003a009c
:10229400501680004a00de00614060000080fb00b0
:1022a400000f78002c0037001e009000f60f50003d
:1022b40006003a00501680004b00de0061406000ca
:1022c4000080fb00000f7800230037001e00900000
:1022d400f70f500006003a00501680004c00de0054
:1022e400614060000080fb00000f78001a00370096
:1022f4001e009000f80f500006003a0050168000af
:102304004d00de00614060000080fb00000f78009b
:10231400110037001e009000f90f500006003a002b
:10232400501680004e00de00614060000080fb001b
:10233400000f7800080037001e009000fa0f5000cc
:1023440005003a00501680004f00de00004078007f
:102354000080fb00000f78001e0078000080fa0067
:10236400000006000200fa00000f78008000eb0075
:102374001e0078004bfe07008000eb001e00780072
:10238400a3fb07001e00780023ff07000000e00005
:1023940004003a00110020001e007800e7fc07004a
:1023a400030037008000eb001e007800e3fc070008
:1023b4000080fa0000000600bc00fa00e024ef00f0
:1023c4000080eb0000168800e224ef000080eb00a0
:1023d400401688000421a900200880000040a000c5
:1023e4000050a0002008880005e1a8001061a900a1
:1023f400800880000040a0000050a00080088800f1
:1024040011e1a80030032000401188002222ef00cf
:1024140000002800001188002342a80060468000c4
:102424008000eb007afb070060468000110020006a
:10243400c2fc0700b04580008000eb0074fb07007d
:10244400f04480008000eb0071fb0700f044800042
:1024540011002000b9fc0700f0458000eefe0700e3
:102464000000e00004003a00b04580008000eb006a
:10247400b2fc07000100370000000000f0458000b6
:10248400e5fe07000000e000fcff3200b0458000dc
:1024940011002000a9fc07005a020700c705070025
:1024a40020c3b300004f780090c3b30010479800d6
:1024b400e0c0b3002047980040c0b3003047980004
:1024c400c0c0b3004047980080c0b3005047980094
:1024d400f0c0b300604798000028ef006e439000fe
:1024e400de4290004e429000be4190002e4190008a
:1024f4009e4090001e4078004d07070051030700de
:102504006704070080428800914288000040eb0085
:102514007047980080428000914280006701470024
:10252400330107000040eb00305f98007b00470058
:1025340041852800120107007b00470061862800be
:102544000f010700e70047007b0047000c0107006c
:102554007b004700c1862800090107007b00470073
:10256400af02070015070700f04188000040800013
:10257400e10f50000e003a001007070000407800f9
:10258400010907000000fb000000e9000042880088
:10259400803e20009407070096060700004078005c
:1025a400f9080700eb4f500001003400240907002c
:1025b400020007000080fa00000006002c01fa0067
:1025c4000040eb00004f78000040eb0040579800bb
:1025d4000040eb00407f98000040eb0040df990092
:1025e4000040eb0000f799000040eb00005f9a0008
:1025f4008006070000407800e30807000000fb00a5
:10260400cf80de000e0178008a0007005c06070018
:1026140000407800dc0807000000fb00cf80de00eb
:102624007401470083000700380607000040780063
:10263400d50807000000fb00cf80de0082022000e6
:102644000e0141007b000700870607000040780068
:10265400cd0807000000fb00cf80de0082112000bf
:102664000e01410073000700b70607000040780020
:10267400c50807000000fb00cf80de00c20d20006b
:102684000e0141006b000700cc06070000407800f3
:10269400bd0807000000fb00cf80de00020f200011
:1026a4000e014100630007008a060700004078001d
:1026b400b50807000000fb00cf80de0042102000b8
:1026c4000e0141005b000700c00320000e00400023
:1026d4008e007800aa000700c00320000e0040000e
:1026e400e1862800a6000700f4004700c00320008c
:1026f4000e004000a2000700c00320000e004000ae
:10270400e18628009e000700810220008e804000a0
:10271400c00320000e00400099000700c003200001
:102724000e0040000187280095000700c003200028
:102734000e0040004187280091000700c10d2000d1
:102744008e804000c00320000e0040008c00070073
:10275400c00320000e004000e18728008800070025
:10276400411020008e804000c00320000e00400075
:1027740083000700c00320000e00400011882800d9
:102784007f000700010f20008e804000c00320005e
:102794000e0040007a000700c00320000e00400035
:1027a4001188280076000700811120008e804000e7
:1027b400c00320000e00400071000700c003200089
:1027c4000e004000318828006d000700c00320007f
:1027d4000e004000120207000080fa00000006000c
:1027e4000600fa0010079800210798000000eb008b
:1027f400000f78001e0fe8001e009000ae0090004d
:10280400a2002000030020006df8070010079800c4
:10281400210798001e009000ae009000e00f5000c9
:10282400e08f5800f3ff3a001e0078000080fa00a1
:10283400000006001800fa00881f7800100f9800a6
:10284400210f9800320f980070882800e600470096
:102854000a000900b0587800b000b1001e089000ca
:10286400ae089000deff0700000f7800be0890005d
:10287400210798001e089000ae089000e00f500059
:10288400e08f58000a003d001e0fe8002e00900063
:10289400d1c2b300014878001e089000ae08900031
:1028a40060001000e0801800100f9800210f9800bd
:1028b4001e00e900100798001e009000ae00900072
:1028c400008440001e089000ae089000a200200082
:1028d40003002000c6f8070066014700000041001d
:1028e40010407800004c78001e089000ae0890005c
:1028f400a20020000300200031f80700100f980008
:10290400210f98001e0090000000e90010079800b5
:102914001e089000ae089000e00f5000e08f5800b1
:10292400e5ff3a001e007800ae00900000804000f1
:102934008040eb00014878004f0478000080fa00e2
:10294400000006000400fa00100798000000eb00e5
:10295400000f7800010037001e0fe8001e00780009
:102964009e00900000804000104078000004e000c9
:10297400f9ff3a001e0078000080fa00000006000b
:102984000400fa00000f78001107980001003700d6
:102994001e0fe8001e007800104078000004e000dc
:1029a400fbff3a00000000001e00900090407800f9
:1029b4001e007800014878001e007800104078005e
:1029c4000080fb000000ea004f00de0000407800b9
:1029d4001e0fe8009e0090008100e8001107980097
:1029e4000004e000f0ff3a000080fa000000060056
:1029f4004800fa00881f78001027980021279800c3
:102a0400322798000000eb00000f78001e20900091
:102a1400ae209000fdf707002007980031079800ca
:102a24002e009000be00900019f807000001be00bf
:102a34001e209000ae209000bff6070040079800cb
:102a4400510798000000eb006007980018c0b3001d
:102a54006011b8001e209000ae209000e7f7070038
:102a64000000e000010035000044eb000804e00031
:102a7400150032004e009000de00900001f0a2002c
:102a840040079800510798002e009000be00900067
:102a940060001000e08018002007980031079800bb
:102aa4000a00370002002000031224004e009000a8
:102ab400de0090005df80700400798005107980079
:102ac4001e0fe800010037000000000018c0b3002a
:102ad4000200200003f823004e009000de00900066
:102ae400c6f707000000e000010035000044eb00d9
:102af4000804e000060032006011b8004e009000a7
:102b0400de009000e5f707000000e000e5ff3a0072
:102b14001e0fe9000040eb00105f98000040eb003e
:102b2400506f98000040eb00405798003e20900002
:102b34008040eb0001487800d00220000e004000e5
:102b4400000178002e009000be00900039ff0700bd
:102b54001e0078000000e00072003500a0418400ef
:102b64009e007800808f50006e003d009e0078002b
:102b740011079800200037004e009000de009000fe
:102b8400a2f70700000f9800110f98007400470087
:102b9400000178000e0890009e08900025ff0700b1
:102ba400f40047007900470075ff07000e08900005
:102bb4009e089000b6f707000001be004e0090008a
:102bc400de0090005cf6070040079800510798006b
:102bd40002002000031224004e009000de0090004a
:102be40012f8070040079800510798001e00900053
:102bf4000000e80010079800a04184009e009000a7
:102c0400808f5000dcff350018c0b3006011b8009d
:102c14001e209000ae20900078f707000000e0002e
:102c2400010035000044eb000804e0000600320017
:102c3400218928003e20900051ff07006e0090007b
:102c44000000e80060079800d00220000e00400059
:102c5400800078003e20900049ff07004189280049
:102c64003e20900046ff07000000eb00700798002c
:102c740006003700618928003e20900040ff0700cd
:102c84007e0090000000e800700798007e0090002d
:102c94009e0f5000f7ff3500790047008000780050
:102ca4003e20900036ff0700d00220000e004000b6
:102cb40024ff0700000478007900470021ff070083
:102cc400000044000080e8001e004000ee00900078
:102cd4000080400060079800090037006e009000f3
:102ce4000080e900be209000008040008040eb009e
:102cf400014878006e0090000000e9006007980029
:102d04006e0090000080e900be209000008040002a
:102d14009040780000c3b30080cf5000efff320032
:102d24001c00370018c0b3006011b8001e209000ca
:102d3400ae20900031f707000000e00001003500ec
:102d44000044eb000804e00006003200218928005a
:102d54003e2090000aff07006e0090000000e8008b
:102d640060079800d00220000e0040008000780028
:102d74003e20900002ff0700d00220000e00400019
:102d8400f0fe07000000e800ee0090000080400024
:102d9400600798006e0090000000e900be209000db
:102da400008040008040eb00014878004f04780028
:102db4000080fa00000006000000fa00030037005b
:102dc400b04580008000eb005cfa0700f04580000d
:102dd40091fc0700e10f5000f9ff320000000000f1
:102de400f04580008cfc07000000e000fcff32008e
:102df400b04580001100200050fa07000080fa005e
:102e0400000006000000fa00f044800011002000d9
:102e14004afa0700f04580007ffc07000000e0004c
:102e240004003a00b04580008000eb0043fa07003c
:102e34000100370000000000f045800076fc070028
:102e44000000e000fcff3200b045800011002000cb
:102e54003afa07000080fa00000006000800fa00b1
:102e64000000eb00000f78000000eb001007980052
:102e74000000eb00200798001000200030079800a5
:102e840025003700803e2000570507002700070073
:102e94000000e000090032002e0090000000e8006d
:102ea400200798002e009000e40f50001a003a000a
:102eb4000000eb0030079800170037000000eb001b
:102ec400200798001e0090000000e80010079800fa
:102ed4009e009000c0032000808f50000e0034003c
:102ee400b5ff070080bb20003f050700c5ff0700b2
:102ef40080bb20003c0507000000eb001007980091
:102f04001e0fe8001e007800e50f500002003a0092
:102f14000000eb00300798003e0090000000e00045
:102f2400d8ff3a000080fa00000006000800fa000a
:102f34005046800038fc0700e10f500006003a00bc
:102f4400000000005046800033fc07000000e00051
:102f5400fcff3a00010037000000000050468000ea
:102f64002dfc07000000e000fcff32000021ef0010
:102f740000088000200798000000000050468000f0
:102f840025fc07000000e000fcff3a000000000000
:102f94005046800020fc07000000e000fcff3200e7
:102fa40000088000300798006000b800008fbe0061
:102fb400be0090002e009000808f50000600350067
:102fc400be0090002e00900000805000cf80de00f4
:102fd400008fbe0008003700be0090002e00900055
:102fe400008050006101b9000000200011002000a1
:102ff400001f41000197490070418400cf80de002a
:1030040012002000be0f5000ae8f580001003400a3
:103014000001eb00020078000080fa0000000600c6
:103024000600fa00200798000000eb00000f78006b
:1030340090012000401188002222ef0000002800a7
:10304400001188002342a8002100370011118000dc
:1030540000202000008060000000e00012003a0020
:103064001e007800ae009000008040001040780000
:103074000000fb00201188001e0fe8000000eb0098
:1030840010079800030037001e0090000000e800bd
:10309400100798009e009000703e2000808f500022
:1030a400f9ff34000a0037000000eb001007980015
:1030b400030037001e0090000000e800100798008d
:1030c4009e009000f0522700808f5000f9ff3400da
:1030d4002e0090001bfe07009e0f5000dbff3c00fb
:1030e4000080fa00000006000200fa00000f7800d9
:1030f4001e007800004078000043b0000080fa0011
:10310400000006000200fa00000f78003dff0700ef
:1031140000712200b404070080892800c0ff070062
:10312400a00f2000b0040700408a2800bcff07005d
:10313400c0882000baff0700e08a2800b8ff070013
:10314400a00f2000a80407001e007800b4ff0700a9
:10315400a00f2000a4040700208b2800b0ff070064
:1031640080382100a004070013ff07000080fa0044
:10317400000006000800fa00a0458000a6fb070036
:10318400e10f500006003a0000000000a045800056
:10319400a1fb07000000e000fcff3a00010037003b
:1031a40000000000a04580009bfb07000000e00039
:1031b400fcff320000088000200798000000000097
:1031c400a045800094fb07000000e000fcff3a00eb
:1031d40000088000300798006000b800008fbe002f
:1031e400be0090002e009000808f50000600350035
:1031f400be0090002e00900000805000cf80de00c2
:10320400008fbe0005003700be0090002e00900025
:1032140000805000cf80de00008fbe00604184003b
:10322400cf80de0012002000be0f5000ae8f580089
:1032340001003d000001eb00020078000080fa006c
:10324400000006000000fa004023ef0041e3a9005b
:10325400001a80000080a1000090a100001a8800dc
:10326400001a80000040a1000050a1000060a100ed
:103274000070a100001a8800001a80000040a0001d
:103284000050a0000060a0000070a100001a880097
:103294004043a9004023a9004223ef00211a8000e3
:1032a40000f0210001007000201a880020c0b30043
:1032b40044e3b700401a80000050a1000060a10060
:1032c4000070a100401a88005023ef000080fa002b
:1032d400000006000400fa00100798001e00900089
:1032e400e40f500020003200e40f500005003c00c1
:1032f4000000e0000a003200e20f5000110032002a
:103304003d003700ec0f500029003200ef0f500051
:1033140030003200eb0f50001c0032003600370042
:10332400e0448000110020005efa0700e0448000c1
:1033340011002000b6f70700e0448000e2fa07001d
:103344002d003700004580001100200055fa0700c9
:103354000045800011002000adf707000045800003
:10336400d9fa07002400370020458000110020000e
:103374004cfa07002045800011002000a4f7070044
:1033840020458000d0fa07001b003700404680002b
:103394001100200043fa070040468000110020007d
:1033a4009bf7070040468000c7fa07001200370069
:1033b40030468000110020003afa070030468000b1
:1033c4001100200092f7070030468000befa070083
:1033d40009003700704580001100200031fa070011
:1033e400704580001100200089f7070070458000b7
:1033f400b5fa07000000000041e3a8004023a8003c
:1034040000000000001a8000610060000000e0007d
:10341400fcff320001188000010f78001e007800c4
:103424000080fa00000006000800fa00889fbe0031
:10343400b0408400a7ff0700514184000100500000
:1034440020079800c0408400a2ff07005141840077
:1034540001005000300798002e009000cf80de005d
:103464008bf507000004be003e009000cf80de0014
:1034740087f507000801be008df4070042ee220024
:1034840053262400e9f50700008fbe0018c0b300de
:1034940002002000031a24001e00be0059f5070094
:1034a4000000e00001003c000044eb000804e000e0
:1034b4000400320000002000011a2400008fbe0026
:1034c4000d00370018c0b30002002000031f2c00b9
:1034d4001e00be0049f507000000e00001003500b1
:1034e4000044eb000804e000030032000000200068
:1034f400011f2c00008fbe001e00be004f04be0042
:103504000080fa00000006000600fa001007980088
:10351400210798000000eb00000f78000000eb008a
:10352400000f7800080037001e007800c200dd009c
:1035340040802000008040001e019000ae019000f9
:103544000288be001e0fe800504480009e007800f0
:10355400808f5000f4ff35000080fa000000060060
:103564000600fa0010079800210798000000eb00fd
:10357400000f78000000eb00000f78000c0037000b
:103584009e0078001e804000c200dd0040802000c4
:10359400008040001000be001e017800c211dd0052
:1035a40042802000028141000089be001e0fe80015
:1035b400504480000000e9009e0f5000f0ff3c00e2
:1035c400504480000000e900c200dd00408020007b
:1035d400008040001e019000ae0190000288be00f1
:1035e4000080fa00000006000600fa006000b8003f
:1035f400008fbe000000eb00200798000000eb00e5
:10360400200798000c0037002e009000c200dd0057
:1036140040802000008040001000be000001be0079
:103624001e00be00c5f30700008fbe002e009000f0
:103634000000e8002007980050448000ae0090008d
:10364400808f5000f0ff350050448000cf80de00b2
:103654000ff507000001be001e00be0096f407002f
:103664000080fa00000006000000fa0050448000c8
:103674000000e900c200dd0040802000008040001e
:103684001002be0020408000314080000001be00d6
:103694000400be00a8f307000080fa000000060042
:1036a4002800fa000040eb0040579800d040840006
:1036b40008ff0700cf80de00f5f40700008fbe008e
:1036c4002003200048030700d040840001ff0700c6
:1036d400cf80de00eef40700200798003107980041
:1036e4002003200040030700d0408400f9fe0700b7
:1036f400cf80de00e6f407004007980051079800e9
:103704002e019000be0190001e00be008bf3070046
:103714004e019000de01900088f3070002002000b3
:103724000304240064f407006007980071079800fc
:1037340002002000034824006e009000fe00900068
:103744005df40700000f9800110f9800f251280053
:10375400b30124000e0890009e08900033f5070082
:10376400000f9800110f980062662600630624007b
:103774000e0890009e0890002cf50700000f98009a
:10378400110f98000e0890009e0890000080fa0027
:10379400000006001800fa00e0448000cdfe070097
:1037a400cf80de00baf40700008fbe0020032000a3
:1037b4000d030700e0448000c6fe0700cf80de0052
:1037c400b3f4070020079800310798002003200075
:1037d40005030700e0448000befe0700cf80de0042
:1037e400abf4070040079800510798002e019000a1
:1037f400be0190001e00be0050f307004e01900071
:10380400de0190004df307000200200003042400b1
:1038140029f407006007980071079800020020004f
:10382400034824006e009000fe00900022f407007c
:103834006266260063062400fcf40700000f98006b
:10384400110f9800b2352d00030124000e089000da
:103854009e089000f5f40700200f9800310f98009f
:103864000e0990009e0990002e089000be0890005a
:10387400eef40700200f9800310f980042602500f5
:10388400830b24000e0890009e089000e7f40700c4
:103894000001be002e089000be08900026f3070029
:1038a400200f9800310f980002a12700a3052400df
:1038b4002e089000be08900020f30700200f980007
:1038c400310f98002e089000be0890000080fa0086
:1038d400000006000200fa0007e2a900b700070092
:1038e4003c0007004f00070000000000301080007b
:1038f400610060000000e000fcff3a000000eb0003
:10390400000f7800d04580001100200040f6070029
:10391400e0458000110020003df60700d0458000fe
:10392400bdf90700e10f50001c003a00e04580009b
:10393400b9f907000000e00018003a00e0458000f3
:103944008000eb0032f60700e04580008000eb00c9
:103954007af707000a003700f6000700d045800018
:103964001100200075f70700f2000700e045800011
:103974008000eb0071f70700ee0007001e0fe8005f
:103984001e007800e80f500004003c00e045800071
:10399400a1f907000000e000efff32004900070032
:1039a4000000000030108000620060000000e000b1
:1039b400fcff3a002f0007000000000030108000d8
:1039c400640060000000e000fcff3a000080fa00a0
:1039d400000006000200fa000000eb00000f78006f
:1039e40008003700405120009e007800808f50006e
:1039f40004003a00b7ff0700f00f200030428800af
:103a040006003700411080000000240000806000a0
:103a14000000e000f3ff3a001e0fe8000080fa0007
:103a2400000006000200fa000000eb00000f78001e
:103a34000602a80009003700405120009e007800cb
:103a4400808f500004003a00a2ff0700f00f20000e
:103a540030428800050037001e0fe8003010800057
:103a6400610060000000e000f3ff3a000080fa000b
:103a7400000006000200fa000000eb00000f7800ce
:103a84000642a80009003700405120009e0078003b
:103a9400808f500004003a008eff0700f00f2000d2
:103aa40030428800050037001e0fe8003010800007
:103ab400640060000000e000f3ff3a000080fa00b8
:103ac400000006000200fa000000eb00000f78007e
:103ad4000622a80009003700405120009e0078000b
:103ae400808f500004003a007aff0700f00f200096
:103af40030428800050037001e0fe80030108000b7
:103b0400620060000000e000f3ff3a000080fa0069
:103b1400000006000200fa000000eb00000f78002d
:103b240006a2a8000682a800090037004051200020
:103b34009e007800808f500004003a0065ff070063
:103b4400f00f200030428800050037001e0fe80007
:103b540030108000700060000000e000f3ff3a00c5
:103b64000080fa00000006000200fa000000eb00ea
:103b7400000f780006a2a9000682a80009003700f9
:103b8400405120009e007800808f500004003a00cd
:103b940050ff0700f00f2000304288000500370076
:103ba4001e0fe80030108000700060000000e0008c
:103bb400f3ff3a000080fa00000006000000fa005b
:103bc4000742a9000722a8000762a900e004200018
:103bd4002010880007e2a8000080fa000000060018
:103be4000600fa00404798000000eb00000f780040
:103bf40009003700405120009e007800808f50005b
:103c040004003a0033ff0700f00f20003042880020
:103c14001b0037001e0fe800411080000000240044
:103c2400008060000000e000f2ff3a004e40900087
:103c34000080fb00101088000000eb0010079800c3
:103c44000b0037009e00900040512000808f5000f0
:103c540004003a001fff0700f00f200030428800e4
:103c6400070037001e0090000000e80010079800cd
:103c740040108000610060000000e000f1ff3a00a5
:103c84000080fa00000006000400fa000000eb00c7
:103c9400000f78000000eb001007980006a2a800af
:103ca4000662a8000a003700405120009e007800f8
:103cb400808f500005003a0006ff0700f00f200037
:103cc40030428800f00f2000180037001e0fe80073
:103cd40040108000620060000000e000f2ff32004b
:103ce4000682a8000c0037009e009000405120007e
:103cf400808f500005003a00f6fe0700f00f200008
:103d040030428800f00f2000080037001e009000a9
:103d14000000e80010079800301080007000600078
:103d24000000e000f0ff3a00001080000080fa007c
:103d3400000006000400fa000000eb0010079800e1
:103d44000000eb00000f7800010037001e0fe800b0
:103d54001e007800e40f5000fcff34000080fa00dd
:103d6400000006000600fa00200798002e009000cc
:103d7400e30f50001d003200e30f500005003e0029
:103d8400e10f50000f003200e10f500012003e001e
:103d940007003700e50f50001e003200e50f500009
:103da40017003900e60f50001f00320023003700cf
:103db4000040eb00004f7800f0c7b30010479800b4
:103dc4001e00370010c0b300004f7800f0c7b300e6
:103dd400104798001900370020c0b300004f780046
:103de400f0c3b300104798001400370030c0b3008c
:103df400004f780070c0b300104798000f003700e0
:103e040040c0b300004f7800f0c3b30010479800df
:103e14000a00370050c0b300004f7800f0c1b3006f
:103e2400104798000500370060c0b300004f7800c9
:103e340000c0eb0010479800000000005fff07007f
:103e4400f8fe0700e0cdb30065ff0700e1fe0700c0
:103e54001e40780062ff0700defe070019ff07001e
:103e6400dcfe0700f0cdb3005dff0700d9fe0700bc
:103e740085ff070010079800fefe0700314280000e
:103e8400f00f2000808f500004003a004628ef0015
:103e94001e80fb00b3ff0700100798001e4090002f
:103ea4000080fb009e0090000080600010079800d6
:103eb4001e0090000080fa00000006000000fa00d6
:103ec400d8fe0700e0cdb30045ff0700c1fe0700a0
:103ed4000040eb0042ff0700befe07000040eb007d
:103ee4003fff0700bbfe070031428000f00f2000b7
:103ef400808f500002003a004628ef00efff0700d1
:103f0400dcfe07000080fa00000006000200fa0050
:103f14002aff0700c3fe0700e0cdb30030ff07000f
:103f2400acfe07000040eb002dff0700a9fe0700d0
:103f3400e4fe0700a7fe0700f0cdb30028ff07004a
:103f4400a4fe070050ff0700000f7800c9fe070019
:103f540031428000f00f2000808f500003003a00af
:103f64004628ef00e9ff0700000f7800f007200063
:103f74001e0f60001e0078000080fa00000006009a
:103f84000200fa000dff0700a6fe0700e0cdb30013
:103f940013ff07008ffe070010c0b30010ff0700d7
:103fa4008cfe0700c7fe07008afe0700f0cdb300b1
:103fb4000bff070087fe070033ff0700000f7800a0
:103fc400acfe070031428000f00f2000808f5000cb
:103fd40003003a004628ef00e9ff0700000f7800cd
:103fe400f00720001e0f60001e0078000080fa0019
:103ff400000006000200fa00f0fe070089fe070038
:10400400e0cdb300f6fe070072fe070020c0b30047
:10401400f3fe07006ffe0700aafe07006dfe07000f
:10402400f0cdb300eefe07006afe070016ff07009e
:10403400000f78008ffe070031428000f00f20004f
:10404400808f500003003a004628ef00e9ff070084
:10405400000f7800f00320001e0f60001e0078009f
:104064000080fa00000006000200fa00d3fe0700f8
:104074006cfe0700e0cdb300d9fe070055fe070033
:1040840060c0b300d6fe070052fe07008dfe070095
:1040940050fe0700f0cdb300d1fe07004dfe07002f
:1040a400f9fe0700000f780072fe0700314280001d
:1040b400f00f2000808f500003003a004628ef00e4
:1040c400e9ff0700000f78001e0078000080fa0066
:1040d400000006000200fa00b8fe070051fe0700c7
:1040e400e0cdb300befe07003afe070050c0b300a7
:1040f400bbfe070037fe070072fe070035fe07000f
:10410400f0cdb300b6fe070032fe0700defe070066
:10411400000f780057fe070031428000f00f2000a6
:10412400808f500003003a004628ef00e9ff0700a3
:10413400000f78009e0078007f8f60001e007800da
:104144000080fa00000006000200fa009bfe07004f
:1041540034fe0700e0cdb300a1fe07001dfe0700fa
:1041640030c0b3009efe07001afe070055fe07008c
:1041740018fe0700f0cdb30099fe070015fe0700f6
:10418400c1fe0700004f78003afe0700314280006c
:10419400f00f2000808f500003003a004628ef0003
:1041a400e9ff0700004f78009e40780067cf600069
:1041b4001e80fb000080fa00000006000200fa00e6
:1041c4007efe070017fe0700e0cdb30084fe070063
:1041d40000fe070040c0b30081fe0700fdfd07009c
:1041e40038fe0700fbfd0700f0cdb3007cfe07009e
:1041f400f8fd0700a4fe0700000f78001dfe07006d
:1042040031428000f00f2000808f500003003a00fc
:104214004628ef00e9ff0700000f7800f0032000b4
:104224001e0f60001e0078000080fa0000000600e7
:104234001200fa00204f9800314f9800424f980026
:10424400534f9800644f9800754f98000657980094
:104254000e509000634060000004e00003003a0048
:1042640010002000000f7800020037000000eb006f
:10427400000f78002e489000da01070030479800bc
:104284003e489000d7010700404798004e489000f0
:10429400d4010700504798005e489000d101070000
:1042a400604798006e489000ce0107007047980060
:1042b4007e489000cb010700204798000e509000e4
:1042c400c8010700004f9800be40900000c8b3002a
:1042d40000c0700030479800de409000f0cbb3007f
:1042e40000c06000504798006e4090000034a00069
:1042f400604798001e0078000000e00005003a00c6
:10430400ae409000f0cdb30000c06000204798009c
:1043140004003700ae40900000c2b30000c070003b
:104324002047980025fe0700e4fe0700bdfd0700b6
:10433400e0cdb3002afe0700a6fd070010c0b300bd
:1043440027fe0700a3fd07004e40900024fe07004f
:10435400a0fd07005e40900021fe07009dfd0700c0
:104364006e4090001efe07009afd07007e409000fc
:104374001bfe070097fd07002e40900018fe070063
:1043840094fd07000e48900015fe070091fd0700fc
:10439400b8fd0700a3fd0700e0cdb30010fe070041
:1043a4008cfd07000040eb000dfe070089fd0700af
:1043b4003e4090000afe070086fd0700adfd0700a1
:1043c4000080fa00000006000400fa00008fbe001e
:1043d40032a32f00e3c823001e00be0013f207001f
:1043e4000080fa00000006000400fa00100798009c
:1043f4000b0037000000eb00000f780001003700cd
:104404001e0fe800a02920009e007800808f500035
:10441400fbff34001e0090000000e9001007980024
:104424001e0090000000e000f2ff3c000080fa0053
:10443400000006000600fa00200798002e009000f5
:104444004480de006f0f60002e0090006f0060005b
:10445400100798001e0078006a00b90080007800f8
:104464001e009000008040000080fa00000006005a
:104474000600fa00200798002e0090004c00de0091
:10448400000f78002e0090004880de006f0060006e
:10449400100798001e0078006a00b90080007800b8
:1044a4001e009000008040000080fa00000006001a
:1044b4000400fa0027a6a900303180000080a00083
:1044c4000090a1003031880020318000000f780076
:1044d4001e007800d7ff0700100798001e00900008
:1044e4000080fa00000006000c00fa006000b8002a
:1044f400008fbe00303180000080a0000090a10039
:104504003031880027a6a900203180008000eb000c
:104514002007980031079800203180008000eb00cc
:1045240040079800510798002e009000c1ff070033
:10453400cf80de00008fbe009e00900000e12000ce
:104544000088b900000178001e0078006000b900fe
:1045540000007800000141009e00780000e1200086
:104564000008b8000101410082007800008fbe00fd
:10457400008fbe004e009000bdff0700c103200065
:104584000180b90000007800cf80de001e0f4000db
:104594005e9748004e009000a6ff0700cf80de0023
:1045a4001e0f40005e9748001e00be000080fa0007
:1045b400000006000000fa006000b80040428800d5
:1045c400514288006000b80060428800714288004f
:1045d4006000b800a0428800b14288006000b800c2
:1045e400c0428800d14288006000b800e0428800e0
:1045f400f14288006000b80000438800114388003d
:104604006000b80020438800314388006000b8008f
:1046140040438800514388006000b800604388002c
:10462400714388006000b80080438800914388008b
:104634006000b800a0438800b14388006000b8005f
:10464400c0438800d14388006000b800e04388007c
:10465400f14388006000b8000044880011448800d9
:104664000080fa00000006000400fa0020479800c9
:10467400ae40900000c3b30080cf500003003a0066
:104684000000eb00000f78003e003700ae409000c1
:1046940010c3b30080cf500003003a001000200084
:1046a400000f780037003700ae40900020c3b300fd
:1046b40080cf500003003a0020002000000f780053
:1046c40030003700ae40900030c3b30080cf5000bc
:1046d40003003a0030002000000f78002900370062
:1046e400ae40900040c3b30080cf500003003a00b6
:1046f40040002000000f780022003700ae409000f8
:1047040050c3b30080cf500003003a005000200093
:10471400000f78001b003700ae40900060c3b30068
:1047240080cf500003003a0060002000000f7800a2
:1047340014003700ae40900070c3b30080cf500027
:1047440003003a0070002000000f78000d003700cd
:10475400ae40900080c3b30080cf500003003a0005
:1047640080002000000f780006003700ae40900063
:1047740090c3b30080cf500002003a0090002000a4
:10478400000f78001e0078000080fa000000060088
:104794000000fa00881f780050052000303b880094
:1047a400a00a2000303b880027a6a8000030220081
:1047b40030318800005020004031880030318000c2
:1047c4000080a0000090a0003031880026fe070081
:1047d4002031880079fe0700000478003dfe0700c0
:1047e4004800dd00000044002031880001fe07007d
:1047f4000004780054fe07004800dd000000440077
:1048040020318800c1fd070000047800dcfd0700aa
:104814004800dd00000044002031880027e6a8009d
:1048240027a6a9004f0478000080fa0000000600c3
:104834001800fa0041418400c00320000088b90038
:10484400000078006a0f400027ff07001007980057
:10485400210798001e009000ae0090003200200056
:104864000300200056f00700300798003e00900037
:10487400d6f107008ef107009e0078000101780050
:10488400110009000200d8008000fd0040079800d4
:10489400ce009000c0032000000178001100090040
:1048a4008200d800800078003041840000804000fd
:1048b40050079800ce009000c0032000000178004b
:1048c400110009008200d8008000fd0060079800f4
:1048d400de009000a0002000000178001100090013
:1048e4008200d80070079800de009000a00020002d
:1048f40000017800110009008200d8008000fd004a
:10490400000f9800ee009000a00020000001780045
:10491400110009008200d800100f9800ee009000ea
:10492400a000200000017800110009008200d800d6
:104934008000fd00200f98007e0090004c00dd00f8
:10494400300f98000e0890004800dd00be0890006b
:1049540000804000300f98001e0890004400dd00e5
:10496400be08900000804000300f9800be08900000
:104974002e08900000804000300f98003e08900000
:104984000080fa00000006000400fa00004f7800de
:104994009e00fb00000120000001780011000900c6
:1049a4008200d800004078006a00b9000000780056
:1049b40000407800204798001e01fb000001200001
:1049c40080017800110009000301d8008000fd0077
:1049d40000407800ae40900000c040000080fa0023
:1049e400000006000400fa00004f78009e00fb005f
:1049f400a000200000017800110009008200d80006
:104a04000040780080407800400020000008dd006d
:104a1400204798001e01fb00a000200080017800c0
:104a2400110009000301d8008000fd000040780057
:104a3400ae40900000c040000080fa000000060074
:104a44000000fa0000408000e10f500015003a0019
:104a5400304580008000eb00edf107003045800018
:104a64001100200035f30700005327005efe070005
:104a740048fb07001042880021428800304580002e
:104a84008000eb002df30700803e200056fe070057
:104a9400cafd070000407800bbff07000000fb00d0
:104aa400004288000080fa00000006001002fa00ac
:104ab400881f78000040eb00004f98000040eb0096
:104ac400405f98000040eb00007798000040eb0046
:104ad40040c798000040eb0000df98000040eb0066
:104ae40040ef98000040eb00004799000040eb00c5
:104af400405799000040eb00006f99000040eb0024
:104b0400407f99000040eb0000d799000040eb0083
:104b140040e799000040eb0000ff99000040eb00e3
:104b2400404f9a000040eb0000679a00604280000a
:104b3400714280007c014700adf7070040428000cd
:104b44005142800068014700a9f7070080428000b5
:104b540091428000020320000e014100a4f70700e7
:104b6400a0428000b1428000420420000e014100b6
:104b74009ff70700c0428000d142800082052000d8
:104b84000e0141009af70700e0428000f1428000e4
:104b9400c20620000e01410095f707000043800083
:104ba40011438000020820000e01410090f7070025
:104bb4002043800031438000420920000e0141005f
:104bc4008bf707004043800051438000820a200095
:104bd4000e01410086f707006043800071438000a6
:104be400c20b20000e01410081f7070080438000c2
:104bf40091438000020d20000e0141007cf7070064
:104c0400a0438000b1438000420e20000e01410009
:104c140077f70700c0438000d1438000820f200053
:104c24000e01410072f70700e0438000f143800069
:104c3400c21020000e0141006df7070000448000ff
:104c440011448000021220000e01410068f70700a1
:104c540044428000554280006042800071428000de
:104c64000001be000400be0034ee07000002be00d6
:104c7400a0428000b14280000001be000400be00da
:104c84002eee07000002be00c0428000d142800028
:104c94000001be000400be0028ee07000002be00b2
:104ca400e0428000f14280000001be000400be002a
:104cb40022ee07000002be00004380001143800082
:104cc4000001be000400be001cee07000002be008e
:104cd40020438000314380000001be000400be0078
:104ce40016ee07000002be004043800051438000de
:104cf4000001be000400be0010ee07000002be006a
:104d040060438000714380000001be000400be00c7
:104d14000aee07000002be00804380009143800039
:104d24000001be000400be0004ee07000002be0045
:104d3400a0438000b14380000001be000400be0017
:104d4400feed07000002be00c0438000d143800096
:104d54000001be000400be00f8ed07000002be0022
:104d6400e0438000f14380000001be000400be0067
:104d7400f2ed07000002be000044800011448000f0
:104d84000001be000400be00eced07001fef0700a9
:104d9400008fbe001e00be003def0700421320003e
:104da4000e01410012f707000040eb0000cf9a000b
:104db400801420000e004000418b2800f0f607000c
:104dc400fc004700801420000e004000ecf60700b1
:104dd400801420000e004000718c2800e8f60700c3
:104de400e8004700801420000e004000e4f60700ad
:104df400801420000e00400061862800e0f60700c1
:104e0400010320008e804000801420000e0040002a
:104e1400dbf6070000408000e10f50004a003a0032
:104e2400304580008000eb00f9f007003045800039
:104e34001100200041f20700005327006afd07001b
:104e44000040eb0000ef9b000040eb0040ff9b00a4
:104e540050fa07002007980031079800104280009c
:104e64002142800018c0b3002e019000be019000c2
:104e7400e4ee07000000e00001003c000044eb0009
:104e84000804e0000c00320010428000214280003f
:104e9400821e20000e014100d5f60700c01f20002d
:104ea4000e004000000178002e009000be0090002b
:104eb400cff607000b003700801e20000e004000d4
:104ec400000178002e009000be009000c8f6070094
:104ed4001042800021428000c21f20000e014100c8
:104ee400c3f60700801420000e004000d18c280077
:104ef400a3f60700811e20008e804000801420004d
:104f04000e0040009ef60700801420000e004000b2
:104f1400418d28009af60700c11f20008e804000b2
:104f2400801420000e00400095f607008014200035
:104f34000e004000618d280091f607003045800086
:104f44008000eb00fdf10700801420000e004000fb
:104f5400818d28008af60700410420008e804000dd
:104f6400801420000e00400085f607008014200005
:104f74000e004000418d280081f6070081052000c5
:104f84008e804000801420000e0040007cf6070054
:104f9400801420000e004000418d280078f60700a0
:104fa400c10620008e804000801420000e004000c6
:104fb40073f60700801420000e004000418d280085
:104fc4006ff60700010820008e8040008014200046
:104fd4000e0040006af60700801420000e00400016
:104fe400418d280066f60700410920008e804000ac
:104ff400801420000e00400061f607008014200099
:105004000e004000418d28005df60700810a200053
:105014008e804000801420000e00400058f60700e7
:10502400801420000e004000418d280054f6070033
:10503400c10b20008e804000801420000e00400030
:105044004ff60700801420000e004000418d280018
:105054004bf60700010d20008e80400080142000d4
:105064000e00400046f60700801420000e004000a9
:10507400418d280042f60700410e20008e8040003a
:10508400801420000e0040003df60700801420002c
:105094000e004000418d280039f60700810f2000e2
:1050a4008e804000801420000e00400034f607007b
:1050b400801420000e004000418d280030f60700c7
:1050c400c11020008e804000801420000e0040009b
:1050d4002bf60700801420000e004000418d2800ac
:1050e40027f60700011220008e8040008014200063
:1050f4000e00400022f60700801420000e0040003d
:10510400f18d28001ef60700007d2000b6fc070084
:10511400801420000e004000c1f70700308e2800e4
:10512400bff7070025fc0700f041880021fd0700b8
:1051340097fd07004f0478000080fa000000060085
:020000040000fa
:10514400840800004e00000002000000581bb80054
:105154000b00000007002b003133300031383700da
:105164003337320030320000000100000200030037
:105174000004000005000600000700000800090004
:10518400000a00000b000c00000d00000e000f00d0
:10519400001000001100120000130000140015009c
:1051a4000016000017001800001900001a001b0068
:1051b400001c000000080000840000000000000043
:1051c400d208000002000000000000005e09000098
:1051d40004000000020000000100000000000000c4
:1051e400d40800008a000000000000000000000055
:020000040000fa
:1051f4000000fa0070f40700808e2800c1f7070051
:04520400ffff370071
:020000040000fa
:0200000401f009
:04000000ffff0000fe
:020000040000fa
:0200000401f009
:04000800ffff0000f6
:020000040000fa
:0200000401f009
:04000c0078ff000079
:020000040000fa
:0200000401f009
:04001000bbff000032
:020000040000fa
:0200000401f009
:040014001fff0000ca
:020000040000fa
:0200000401f009
:04001800ffff0000e6
:020000040000fa
:0200000401f009
:04001c00ffff0000e2
:020000040000fa
:0200000401f009
:04002000ffff0000de
:00000001FF
